:020000040800F2
:10000000A00F00207D3800087D0200087F02000854
:1000100083020008870200088B020008000000002D
:100020000000000000000000000000008F02000837
:1000300091020008000000009302000895020008E9
:100040009738000897380008973800089738000854
:100050009738000897380008973800089738000844
:100060009738000897380008973800089738000834
:100070009738000897380008973800089738000824
:100080009738000897380008973800089738000814
:100090009738000897380008973800089738000804
:1000A00097380008973800089738000897380008F4
:1000B000BB2D0008072D0008973800089738000866
:1000C00097380008973800089738000897380008D4
:1000D0009738000859370008973800089738000803
:1000E00097380008973800089738000897380008B4
:1000F00097380008973800089738000897380008A4
:100100009738000897380008973800089738000893
:100110009738000897380008973800089738000883
:100120009738000897380008973800089738000873
:1001300000F002F800F04AF80AA090E8000C8244AF
:100140008344AAF10107DA4501D100F03FF8AFF28C
:10015000090EBAE80F0013F0010F18BFFB1A43F0A5
:100160000103184798770000B8770000103A24BFC1
:1001700078C878C1FAD8520724BF30C830C144BF0C
:1001800004680C607047000000230024002500264E
:10019000103A28BF78C1FBD8520728BF30C148BFEA
:1001A0000B607047662907F05C83642905F0BA820A
:1001B000002070471FB505F0D1FD0400002000218C
:1001C00006F048FBE0601FBD10B510BD05F0E0FE75
:1001D0001146FFF7EFFF00F022F805F0FEFE03B432
:1001E000FFF7F2FF03BC03F059FA000010B503F06B
:1001F0004FFA03F0E3F94FF4165003F05EFA02F001
:1002000053FE02F0DDFE02F0C0FE03F0B3F902F08F
:10021000E5FB41F61F41092002F026FD10BD002537
:100220000024FFF7E3FF25E002F099FE002404E03C
:100230001149085D02F078FE641C132CF8DB04E021
:1002400002F0E7FF054605B100E0F9E700BF012D28
:1002500004D0022D05D0032D09D105E000F0FCFCEF
:1002600006E001F009FB03E001F010FB00E000BF35
:1002700000BF0025D8E7000000000020704700BF45
:10028000FEE700BFFEE700BFFEE700BFFEE77047E6
:1002900070477047704700000CB500200190009037
:1002A0006C48006840F480306A49086000BF6948C3
:1002B000006800F4003000900198401C0190009804
:1002C00018B90198B0F5A06FF1D16248006800F448
:1002D000003010B10120009001E000200090009853
:1002E000012843D15C48006840F010005A4908607A
:1002F0000846006820F0030008600846006840F0E7
:100300000200086053484068524948600846406807
:1003100048600846406840F480604860084640688D
:1003200020F47C1048600846406840F4E8104860BB
:100330000846006840F08070086000BF45480068CB
:1003400000F000700028F9D04248406820F0030017
:10035000404948600846406840F00200486000BFDD
:100360003C48406800F00C000828F9D10CBD10B5DD
:10037000FFF792FF10BD10B53648006840F001004D
:1003800034490860084640683449084031494860AB
:1003900008460068324908402E490860084600684F
:1003A00020F4802008600846406820F4FE00486081
:1003B0004FF41F008860FFF7DAFF4FF00060294913
:1003C000086010BD10B5002100200022214B5B68A1
:1003D00003F00C0121B1042906D0082928D107E037
:1003E000214B224C236027E01F4B204C236023E04D
:1003F000184B5B6803F47010164B5B6803F4803293
:10040000022303EB904022B9194B4343174C23605E
:100410000DE0104B5B6803F4003323B1144B4343EE
:10042000124C236003E0104B4343104C236003E065
:100430000D4B0E4C236000BF00BF064B5B68C3F33F
:1004400003130C4CE15C094B1B68CB40074C236049
:1004500010BD000000100240002002400000FFF824
:10046000FFFFF6FE08ED00E000127A001C000020FD
:1004700000093D00200000202DE9F34F97B000BF98
:1004800000BF00BF00BF00BF00BF00BF00BFFE48ED
:10049000189907F071F90490FB48189907F06CF966
:1004A0000390049907F092F84FF083410690179853
:1004B00006F0E2FF4FF083410490179806F0DCFF4E
:1004C0000390049907F082F80590069906F0D4FF8E
:1004D000079006F0A5FFCDE9080106F094F9CDE9F3
:1004E0001401E948189907F047F90490E64818996B
:1004F00007F042F90390049907F068F8E349069081
:10050000179807F02FF9E1490490179807F02AF996
:100510000390049907F05AF80590069906F0ACFF8D
:10052000079006F07DFFCDE9080106F06CF98046E2
:100530008946179806F074FFCDE90C0100BF002032
:10054000169071E1D24AD34BDDE90C0106F0CAF9ED
:10055000CDE90C01189806F063FFCDE90A010020EF
:10056000CD49DDE90A2306F071FECDE90201002044
:10057000C949DDE90A2306F069FECDE90001DDE99C
:10058000022306F03DFC0022C44BCDE90601DDE963
:100590000C0106F0A7F90022C04BCDE90201DDE90C
:1005A0000C0106F09FF9CDE90001DDE9022306F018
:1005B00027FCCDE90401DDE9062306F093F9CDE936
:1005C000080106F020F9CDE912010020B249DDE969
:1005D0000A2306F03BFECDE902010020AE49DDE929
:1005E0000A2306F033FECDE90001DDE9022306F01F
:1005F00007FCCDE906010020A949DDE90C2306F03E
:1006000025FECDE902010020A549DDE90C2306F015
:100610001DFECDE90001DDE9022306F0F1FBCDE985
:100620000401DDE9062306F05DF9CDE9080106F0D5
:10063000EAF8CDE91001DDE91223DDE9140106F045
:1006400005FE06460F4640464946DDE9102306F002
:10065000FDFD04460D46002213463046394606F09D
:10066000CDFC03D201208F49087009E00022134617
:100670003046394606F088FB02D2002089490870CE
:10068000002213462046294606F0B8FC03D200207B
:100690008549087009E0002213462046294606F0E5
:1006A00073FB02D201208049087027F0004725F033
:1006B00000453B4632467DA0CDE9004505F026F8D1
:1006C0007D4A7E4B3046394606F0C0F900227C4B0D
:1006D000CDE9060106F094FBCDE9080106F00EFB1A
:1006E00078490860744A754B2946204606F0AEF9F1
:1006F0000022734BCDE9060106F082FBCDE908012B
:1007000006F0FCFA70490860084602686D48016806
:100710006EA004F0FBFF6B4800686B4909688842D3
:1007200029DD4FF0000ADFF8C0B16748006806F025
:1007300014FB0022624BCDE9040106F061FBCDE918
:1007400008016048006806F008FB00225B46CDE91E
:10075000000106F055FBCDE9020106F0CFFA059045
:1007600006F0FBFACDE90601DDE9082306F06EF993
:10077000CDE90E0128E000215B48CDE90E1051487B
:10078000006806F0EAFA00224D4BCDE9040106F0BC
:1007900037FBCDE908014C48006806F0DEFA00227C
:1007A000514BCDE9000106F02BFBCDE9020106F02B
:1007B000A5FA059006F0D1FACDE90601DDE9082396
:1007C00006F044F982468B465046594606F096FAA2
:1007D00046490860DDE90E0106F090FA44490860D8
:1007E000084602684148016842A004F08FFF0121D9
:1007F000880704F085FA0121454804F081FA07E0F2
:1008000044480078022803D100204249087000E0E3
:10081000F6E700BFDDE91201CDE91401DDE9108939
:100820001698401CC0B2169016983228FFF68AAE71
:100830003948C0E900893948C0E9008919B0BDE8E4
:10084000F08F2DE9F34F8FB000BF00BF00BF00BF96
:100850000D48109906F090FF06900B48109906F08D
:100860008BFF0590069906F0B1FE4FF0834108908A
:100870000F9806F001FE4FF0834106900F9806F0A6
:10088000FBFD059006994BE00000604200008442A9
:100890009A9999999999D93F00004C4000003040AD
:1008A000008050405500002054000020256C662038
:1008B00020256C66000000007B14AE47E17AA43F5F
:1008C0000000F03F4C000020500000206C65667472
:1008D0005F73746570202564202072696768745F97
:1008E0007374657020256400000024405C000020C3
:1008F000580000206C6566745F74696D652025641E
:10090000202072696768745F74696D6520256400D2
:10091000000400407C0000206000002068000020EF
:1009200006F054FE0790089906F0A6FD099006F01F
:1009300077FD804605F067FFCDE90C01FE48109970
:1009400006F01AFF0690FC48109906F015FF059076
:10095000069906F03BFEF94908900F9806F002FF51
:10096000F64906900F9806F0FDFE0590069906F0F0
:100970002DFE0790089906F07FFD099006F050FDC6
:10098000804605F040FFCDE90A01ED48ED49DDE97B
:100990000C2306F05BFC04460D46EB48EB49DDE911
:1009A0000A2306F053FC06460F4600221346204653
:1009B000294606F023FB03D20120E549087009E02F
:1009C000002213462046294606F0DEF902D2002016
:1009D000DF490870002213463046394606F00EFB08
:1009E00003D20020DB49087009E00022134630469C
:1009F000394606F0C9F902D20120D649087025F01F
:100A0000004527F000472046294606F077F9079071
:100A100006F0A3F98046D04AD04B06F017F8CDE98E
:100A2000080106F06BF9CE4908603046394606F0F9
:100A300065F9079006F091F98046C74AC74B06F062
:100A400005F8CDE9080106F059F9C6490860C4481F
:100A500000680968884228DDDFF80CA3C1480068F7
:100A600006F07BF980460022C04B06F0C9F9CDE9BB
:100A70000601BB48006806F070F980460022BC4BB6
:100A800006F0BEF9CDE9000106F038F9039006F052
:100A900064F9CDE90401DDE9062305F0D7FFCDE9CE
:100AA000080105F0EDFE834627E0DFF8BCB2AC4854
:100AB000006806F052F980460022AC4B06F0A0F91F
:100AC000CDE90601A748006806F047F90022A84BC7
:100AD000CDE9000106F094F9804606F00FF9039085
:100AE00006F03BF9CDE90401DDE9062305F0AEFF90
:100AF000CDE9080105F0C4FE8246504606F01EFD11
:100B00009C490860584606F019FD9B490860012180
:100B1000880704F0F5F80121984804F0F1F811B0C5
:100B2000BDE8F08F2DE9F84F804689460027002563
:100B3000AB4600BF02F013FA002405E09049085DBF
:100B400002F0F2F9601CC4B2102CF7DB782002F03E
:100B5000EBF93A2002F0E8F90821012002F0EFF960
:100B6000792002F0E1F93A2002F0DEF94FF0000AB4
:100B700064E0002440E004E002F04BFB054605B1D0
:100B800000E0F9E700BF002D19DD0B2D17DA1FB9C2
:100B9000E01C00F0FF0B03E004F10A0000F0FF0B83
:100BA0005946012002F0CBF90A2D00D1002505F1AC
:100BB0003001C8B202F0B8F90DF8045019E002F0A3
:100BC000CEF9002605E06F49885D02F0ADF9701C92
:100BD000C6B2092EF7DB00250024002600270020DE
:100BE0008DF800008DF801004FF47A7002F023FDBB
:100BF000A0E70025601CC4B2022CBCDB67B99DF8DD
:100C000001109DF8002002EB820201EB420006F089
:100C1000B1FCC8F800000BE09DF801109DF8002021
:100C200002EB820201EB420006F0A4FCC9F80000CE
:100C3000781CC7B20AF1010000F0FF0ABAF1020FF6
:100C400097DB05E002F0E5FA05460B2D00D100E048
:100C5000F8E700BFBDE8F88F2DE9FF4700200390BB
:100C6000029002A903A8FFF75DFF029806F0D8FBE7
:100C7000064600223D4B06F0C3F804460D46039895
:100C800006F0CEFB06460022384B06F0B9F8804647
:100C900042460B463CA0CDE9004504F037FDDDE9B6
:100CA0000210FFF7CEFD07E039480078022803D193
:100CB00000203749087000E0F6E700BF2A4803909B
:100CC000029040F6B83002F0B6FCDDE90210FFF702
:100CD000D3FB40F6B83002F0AEFCBDE8FF8703B5A9
:100CE000A1B000BF00BF00BF00BF00BF00BF00BF7A
:100CF00000BF00BF27A004F009FD2849219806F095
:100D00003BFD099006F08CFBCDE90E01229806F020
:100D100087FBCDE90C0100202149DDE90C2306F019
:100D200095FACDE9020100201D49DDE90C2306F00A
:100D30008DFACDE9000135E00000604200008442F8
:100D40009A99999999194D40A4703D0AD7A3554095
:100D500055000020540000207B14AE47E17AA43FE8
:100D60004C00002050000020000020410000F03F17
:100D7000000024405C0000205800002000040040D7
:100D8000300000204100002025662020256600005C
:100D90007C0000206E6968616F00000000007041F7
:100DA00000004C40DDE9022306F02AF80022FE4B49
:100DB000CDE90601DDE90E0105F094FD0022FA4BB4
:100DC000CDE90201DDE90E0105F08CFDCDE9000160
:100DD000DDE9022306F014F8CDE90401DDE906237C
:100DE00005F080FDCDE9080105F00DFDCDE91E01FE
:100DF0000020EE49DDE90C2306F028FACDE90201D6
:100E00000020EA49DDE90C2306F020FACDE90001D3
:100E1000DDE9022305F0F4FFCDE906010020E449F5
:100E2000DDE90E2306F012FACDE902010020E049C7
:100E3000DDE90E2306F00AFACDE90001DDE902231F
:100E400005F0DEFFCDE90401DDE9062305F04AFDEA
:100E5000CDE9080105F0D7FCCDE91C01D549DDE954
:100E60001E2303C906F0F2F9CDE91601D249DDE9E6
:100E70001C2303C906F0EAF9CDE914010022134648
:100E8000DDE9160106F0BAF803D20120CB4908705B
:100E900009E000221346DDE9160105F075FF02D2D4
:100EA0000020C649087000221346DDE9140106F04F
:100EB000A5F803D20020C249087009E000221346B9
:100EC000DDE9140105F060FF02D20120BC49087081
:100ED000DDE9160121F00041CDE91601DDE914013B
:100EE00021F00041CDE91401DDE9160105F006FF0E
:100EF000059005F032FFB34AB34BCDE9060105F08A
:100F0000A5FDCDE9080105F0F9FEB0490860DDE96D
:100F1000140105F0F3FE059005F01FFFA94AAA4B46
:100F2000CDE9060105F092FDCDE9080105F0E6FEE8
:100F3000A7490860A54800680968884229DD0021A2
:100F4000A448CDE91210A248006805F006FF00226F
:100F5000A14BCDE9040105F053FFCDE908019B4801
:100F6000006805F0FAFE00229A4BCDE9000105F079
:100F700047FFCDE9020105F0C1FE059005F0EDFE49
:100F8000CDE90601DDE9082305F060FDCDE910019A
:100F900028E000208F49CDE910018C48006805F059
:100FA000DCFE00228C4BCDE9040105F029FFCDE9E0
:100FB00008018748006805F0D0FE0022854BCDE986
:100FC000000105F01DFFCDE9020105F097FE059037
:100FD00005F0C3FECDE90601DDE9082305F036FD85
:100FE000CDE91201DDE9120105F088FE7B490860B8
:100FF000DDE9100105F082FE7949086001218807CA
:1010000003F07EFE0121774803F07AFE694803C8A9
:10101000CDE91E01684803C8CDE91C01FAE10022B0
:10102000714BDDE90E0105F0AFFE06D300226F4BD8
:10103000DDE90E0105F0E2FF04D200216648CDE9AA
:101040000A1017E000226A4BDDE90E0105F09CFE54
:1010500006D30022674BDDE90E0105F0CFFF05D274
:1010600000204FF08041CDE90A0103E000216248F1
:10107000CDE90A10DDE90A23DDE90E0105F032FCB5
:10108000CDE90E0100225D4BDDE90E0106F0DEF830
:1010900000225A4BCDE90401DDE90E0106F0D6F835
:1010A000CDE90201DDE9042305F0AAFE0022544B3C
:1010B000CDE9060105F0D8FFCDE9080105F0A3FB55
:1010C000CDE90C0100224F4BDDE90C0105F00AFCD3
:1010D000CDE90C0100203549DDE90C2306F0B6F816
:1010E000CDE9020100203149DDE90C2306F0AEF81C
:1010F000CDE90001DDE9022305F082FE00222A4B42
:10110000CDE90601DDE90E0105F0ECFB0022264BDE
:10111000CDE90201DDE90E0105F0E4FBCDE90001B6
:10112000DDE9022305F06CFECDE90401DDE90623CB
:1011300005F0D8FBCDE9080105F065FBCDE91A0102
:1011400000201A49DDE90C2306F080F8CDE9020100
:1011500000201649DDE90C2306F078F8CDE90001FE
:10116000DDE9022305F04CFECDE90601002010491F
:10117000DDE90E2306F06AF8CDE9020100200C49F2
:10118000DDE90E2306F062F8CDE90001DDE9022376
:1011900005F036FECDE90401DDE9062305F0A2FBEA
:1011A000CDE9080130E000000000304000004C4074
:1011B00000805040600000206800002055000020A2
:1011C000540000207B14AE47E17AA43F4C0000207D
:1011D00050000020000024400000F03F5C00002090
:1011E000580000200004004000002A4000804240D7
:1011F00000003140008040400000084000003940BD
:1012000000206C400000344005F0FDFACDE91801E3
:10121000DDE91A23DDE91E0106F018F8CDE9160113
:10122000DDE91823DDE91C0106F010F8CDE9140111
:1012300000221346DDE9160105F0E0FE03D201208D
:10124000FE49087009E000221346DDE9160105F0A9
:101250009BFD02D20021F948017000221346DDE90E
:10126000140105F0CBFE03D20020F549087009E017
:1012700000221346DDE9140105F086FD02D20121AA
:10128000EF480170DDE9160121F00041CDE91601BA
:10129000DDE9140121F00041CDE91401DDE914017B
:1012A000CDE90001E7A0DDE9162304F02FFAEC4AAE
:1012B000EC4BDDE9160105F0C9FB0022EA4BCDE954
:1012C000060105F09DFDCDE9080105F017FDE74990
:1012D0000860E34AE34BDDE9140105F0B7FB0022A7
:1012E000E14BCDE9060105F08BFDCDE9080105F0E4
:1012F00005FDDF49086008460268DC480168AFF672
:10130000342004F003FAD9480068D94909688842B2
:1013100029DD0020D749CDE91201D548006805F044
:101320001CFD0022D04BCDE9040105F069FDCDE99B
:101330000801CE48006805F010FD0022CD4BCDE934
:10134000000105F05DFDCDE9020105F0D7FC059037
:1013500005F003FDCDE90601DDE9082305F076FB84
:10136000CDE9100128E00020C249CDE91001BF48B5
:10137000006805F0F2FC0022BB4BCDE9040105F04A
:101380003FFDCDE90801BA48006805F0E6FC0022FF
:10139000B84BCDE9000105F033FDCDE9020105F0C0
:1013A000ADFC059005F0D9FCCDE90601DDE9082387
:1013B00005F04CFBCDE91201DDE9120105F09EFCC0
:1013C000AD490860DDE9100105F098FCAB49086003
:1013D00008460268A8480168A9A004F097F901210D
:1013E000880703F08DFC0121AD4803F089FC07E07C
:1013F000AC480078022803D10020AA49087000E018
:10140000F6E700BFDDE91A01CDE91E01DDE91801AB
:10141000CDE91C010022A44BDDE90E0105F0B4FC6E
:10142000FFF4FDAD0021A048CDE90E101AE2002224
:101430009E4BDDE90E0105F0A7FC06D300229C4B74
:10144000DDE90E0105F0DAFD04D200218648CDE980
:101450000A1017E00022974BDDE90E0105F094FC1D
:1014600006D30022944BDDE90E0105F0C7FD05D23D
:1014700000204FF08041CDE90A0103E000208F49B0
:10148000CDE90A01DDE90A23DDE90E0105F0DEFE02
:10149000CDE90E0100228A4BDDE90E0105F0D6FEF2
:1014A0000022874BCDE90401DDE90E0105F0CEFEF7
:1014B000CDE90201DDE9042305F0A2FC0022814B05
:1014C000CDE9060105F0D0FDCDE9080105F09BF955
:1014D000CDE90C0100207C49DDE90C2305F0B6FEC6
:1014E000CDE90C0100207949DDE90C2305F0AEFEC1
:1014F000CDE9020100207549DDE90C2305F0A6FEC7
:10150000CDE90001DDE9022305F07AFC0022704BF1
:10151000CDE90601DDE90E0105F0E4F900226C4B8E
:10152000CDE90201DDE90E0105F0DCF9CDE90001AC
:10153000DDE9022305F064FCCDE90401DDE90623C1
:1015400005F0D0F9CDE9080105F05DF9CDE91A0102
:1015500000205E49DDE90C2305F078FECDE90201AB
:1015600000205A49DDE90C2305F070FECDE90001A9
:10157000DDE9022305F044FCCDE9060100205549D0
:10158000DDE90E2305F062FECDE90201002051499C
:10159000DDE90E2305F05AFECDE90001DDE9022365
:1015A00005F02EFCCDE90401DDE9062305F09AF9EA
:1015B000CDE9080105F027F9CDE91801DDE91A2385
:1015C000DDE91E0105F042FECDE91601DDE9182333
:1015D000DDE91C0105F03AFECDE9140100221346B5
:1015E000DDE9160105F00AFD03D20121134801705F
:1015F00009E000221346DDE9160105F0C5FB02D221
:1016000000200E49087000221346DDE9140105F0A0
:10161000F5FC03D200200A49087009E000221346B5
:10162000DDE9140105F0B0FB02D201200449087085
:10163000DDE9160121F000414EE0000055000020D8
:10164000540000206C6566742063686120256C6618
:101650002072696768742063686120256C660000E9
:101660007B14AE47E17AA43F0000F03F4C0000201D
:1016700050000020000024405C00002058000020A2
:101680006C6566745F74696D6520256420207269DD
:101690006768745F74696D652025640A0000000046
:1016A000000400407C0000200000444000002A406C
:1016B000008042400000314000804040000008406F
:1016C0000000394000206C400000344000004C40D5
:1016D0000000304000805040CDE91601DDE91401E2
:1016E00021F00041CDE91401DDE91401CDE900014B
:1016F000AFF2B000DDE9162304F008F8654A664B46
:10170000DDE9160105F0A2F90022644BCDE90601DE
:1017100005F076FBCDE9080105F0F0FA60490860B4
:101720005C4A5D4BDDE9140105F090F900225B4B4A
:10173000CDE9060105F064FBCDE9080105F0DEFA0C
:10174000584908600846026855480168AFF6846049
:1017500003F0DCFF5248006852490968884229DDDD
:1017600000205149CDE912014E48006805F0F5FA14
:1017700000224A4BCDE9040105F042FBCDE9080106
:101780004748006805F0E9FA0022474BCDE900011F
:1017900005F036FBCDE9020105F0B0FA059005F041
:1017A000DCFACDE90601DDE9082305F04FF9CDE9C2
:1017B000100128E000213C48CDE9101038480068AD
:1017C00005F0CBFA0022354BCDE9040105F018FBFA
:1017D000CDE908013348006805F0BFFA0022324B1A
:1017E000CDE9000105F00CFBCDE9020105F086FA18
:1017F000059005F0B2FACDE90601DDE9082305F010
:1018000025F9CDE91201DDE9120105F077FA274942
:101810000860DDE9100105F071FA25490860084605
:10182000026822480168AFF2A81003F06FFF01219F
:10183000880703F065FA01211E4803F061FA07E00A
:101840001D480078022803D100201B49087000E0E1
:10185000F6E700BFDDE91A01CDE91E01DDE9180157
:10186000CDE91C010022104BDDE90E0105F0C6FB9D
:10187000FFF4DDAD23B000BD10B510491048FFF7EF
:101880002EFA40F6B83001F0D6FE10BD10B500F0CB
:101890006EF810BD7B14AE47E17AA43F0000F03F24
:1018A0004C00002050000020000024405C0000207C
:1018B00058000020000400407C0000200000A041EF
:1018C0000000C8412DE9FC4704460D4616464FF07E
:1018D0000009CA4600BF4FF0000AD14610E001F0EF
:1018E0005FFE804605F05EFE0746514605F0C4FDEA
:1018F00082460A2001F09FFE09F101001FFA80F9DB
:10190000B9F10A0FEBDB504605F08AFD07460022CD
:10191000FD4B05F09BF8CDE9000104F0B1FF8246D4
:10192000504605F07DFD07464FF06632F74B05F057
:1019300065FB06D2F64840F8345000EBC400466020
:1019400013E0504605F06CFD07464FF03332F14B83
:1019500005F01AFA08D24FF0FF30ED4941F8340093
:1019600001EBC401486000E0B5E7BDE8FC8700B5C5
:1019700099B00020189000211791169100BF00BF68
:1019800000BF00BF17911891FEE3189809287CDA70
:1019900000201690169805F043FD0022DE4BCDE99D
:1019A000000104F09FFFCDE90401169805F038FD11
:1019B0000022D94BCDE9000104F094FFCDE90201EA
:1019C000DDE9042305F01CFACDE90801179805F0BC
:1019D00027FD0022D14BCDE9000104F083FFCDE9C2
:1019E0000401179805F01CFD0022CC4BCDE9000145
:1019F00004F078FFCDE90201DDE9042305F000FAE7
:101A0000CDE90601DDE9082304F06CFFCDE90A0108
:101A100004F0F9FECDE91401169805F001FD00224D
:101A2000BD4BCDE9000104F05DFFCDE9040116983E
:101A300005F0F6FC0022B84BCDE9000104F052FF9E
:101A4000CDE90201DDE9042305F0DAF9CDE9080169
:101A5000179805F0E5FC0022B14BCDE9000105F037
:101A600003FBCDE90401179805F0DAFC0022AC4B2A
:101A7000CDE9000105F0F8FACDE90201DDE9042322
:101A800005F0BEF9CDE9060100E01EE0DDE908231E
:101A900004F028FFCDE90A0104F0B5FECDE91201FA
:101AA000A04B189A03EBC202DDE9140103C29E4B5E
:101AB000189A03EBC202DDE9120103C24FF07E5116
:101AC000179805F0D9FC179093E2189812287DDA40
:101AD0004FF07E501690169805F0A2FC00228E4B17
:101AE000CDE9000105F0C0FACDE90401169805F032
:101AF00097FC0022884BCDE9000105F0B5FACDE94D
:101B00000201DDE9042305F07BF9CDE9080117980E
:101B100005F086FC0022814BCDE9000104F0E2FED5
:101B2000CDE90401179805F07BFC00227B4BCDE941
:101B3000000104F0D7FECDE90201DDE9042305F040
:101B40005FF9CDE90601DDE9082304F0CBFECDE91C
:101B50000A0104F058FECDE91401169805F060FC66
:101B600000226D4BCDE9000105F07EFACDE90401BC
:101B7000169805F055FC0022674BCDE9000105F0F1
:101B800073FACDE90201DDE9042305F039F9CDE965
:101B90000801179805F044FC0022614BCDE90001D3
:101BA00005F062FACDE90401179805F039FC00222E
:101BB0005B4BCDE9000105F057FACDE90201DDE903
:101BC000042305F01DF9CDE9060100E01EE0DDE982
:101BD000082304F087FECDE90A0104F014FECDE9E4
:101BE0001201504B189A03EBC202DDE9140103C243
:101BF0004D4B189A03EBC202DDE9120103C24FF00C
:101C00007E51179805F0B8FD17905DE718981B28CE
:101C100079DA4FF080401690169805F001FC00220A
:101C20003D4BCDE9000105F01FFACDE904011698FE
:101C300005F0F6FB0022384BCDE9000105F014FA5F
:101C4000CDE90201DDE9042305F0DAF8CDE9080168
:101C5000179805F0E5FB0022304BCDE9000104F0B8
:101C600041FECDE90401179805F0DAFB00222B4B69
:101C7000CDE9000104F036FECDE90201DDE90423DF
:101C800005F0BEF8CDE90601DDE9082304F02AFEDF
:101C9000CDE90A0104F0B7FDCDE91401169805F06D
:101CA000BFFB00221C4BCDE9000105F0DDF9CDE9B9
:101CB0000401169805F0B4FB0022174BCDE9000192
:101CC00005F0D2F9CDE90201DDE9042305F098F829
:101CD000CDE90801179805F0A3FB0022104BCDE9D0
:101CE000000105F0C1F9CDE90401179805F098FB52
:101CF00000220B4BCDE9000105F0B6F9CDE9020158
:101D0000DDE9042312E034E0000024406666E63F8B
:101D1000C00000203333D33F00C04B400080304030
:101D20000060504048030020D005002005F068F80E
:101D3000CDE90601DDE9082304F0D4FDCDE90A016F
:101D400004F061FDCDE91201FA4B189A03EBC202CF
:101D5000DDE9140103C2F84B189A03EBC202DDE976
:101D6000120103C24FF07E51179805F085FB1790C2
:101D7000D2E3189824287CDAF0481690169805F0DB
:101D80004FFB0022EE4BCDE9000105F06DF9CDE9E6
:101D90000401169805F044FB0022E94BCDE900014F
:101DA00005F062F9CDE90201DDE9042305F028F828
:101DB000CDE90801179805F033FB0022E14BCDE98E
:101DC000000104F08FFDCDE90401179805F028FB10
:101DD0000022DC4BCDE9000104F084FDCDE90201D5
:101DE000DDE9042305F00CF8CDE90601DDE908235F
:101DF00004F078FDCDE90A0104F005FDCDE91401F8
:101E0000169805F00DFB0022CD4BCDE9000105F041
:101E10002BF9CDE90401169805F002FB0022C84B0E
:101E2000CDE9000105F020F9CDE90201DDE9042347
:101E300004F0E6FFCDE90801179805F0F1FA002259
:101E4000C14BCDE9000105F00FF9CDE90401179868
:101E500005F0E6FA0022BC4BCDE9000105F004F9DB
:101E6000CDE90201DDE9042304F0CAFFCDE9060152
:101E700000E01EE0DDE9082304F034FDCDE90A01AD
:101E800004F0C1FCCDE91201AA4B189A03EBC2027F
:101E9000DDE9140103C2A84B189A03EBC202DDE985
:101EA000120103C24FF07E51179805F065FC1790A0
:101EB00032E318982D287DDA4FF08140169016985D
:101EC00005F0AEFA00229E4BCDE9000105F0CCF8FA
:101ED000CDE90401169805F0A3FA0022984BCDE94C
:101EE000000105F0C1F8CDE90201DDE9042304F0A9
:101EF00087FFCDE90801179805F092FA0022914B6F
:101F0000CDE9000104F0EEFCCDE90401179805F0DD
:101F100087FA00228B4BCDE9000104F0E3FCCDE908
:101F20000201DDE9042304F06BFFCDE90601DDE9E0
:101F3000082304F0D7FCCDE90A0104F064FCCDE9E4
:101F40001401169805F06CFA00227D4BCDE90001D2
:101F500005F08AF8CDE90401169805F061FA00222F
:101F6000774BCDE9000105F07FF8CDE90201DDE90D
:101F7000042304F045FFCDE90801179805F050FA55
:101F80000022714BCDE9000105F06EF8CDE90401A6
:101F9000179805F045FA00226B4BCDE9000105F0DA
:101FA00063F8CDE90201DDE9042304F029FFCDE95E
:101FB000060100E01EE0DDE9082304F093FCCDE912
:101FC0000A0104F020FCCDE912015A4B189A03EBE8
:101FD000C202DDE9140103C2574B189A03EBC20297
:101FE000DDE9120103C24FF07E51179805F044FA63
:101FF000179091E2189836287EDA54481690169871
:1020000005F00EFA00224E4BCDE9000105F02CF848
:10201000CDE90401169805F003FA0022484BCDE9FA
:10202000000105F021F8CDE90201DDE9042304F007
:10203000E7FECDE90801179805F0F2F90022414BBF
:10204000CDE9000104F04EFCCDE90401179805F03C
:10205000E7F900223B4BCDE9000104F043FCCDE958
:102060000201DDE9042304F0CBFECDE90601DDE940
:10207000082304F037FCCDE90A0104F0C4FBCDE9E4
:102080001401169805F0CCF900222D4BCDE9000182
:1020900004F0EAFFCDE90401169805F0C1F9002229
:1020A000274BCDE9000104F0DFFFCDE90201DDE9B6
:1020B000042304F0A5FECDE90801179805F0B0F956
:1020C0000022214BCDE9000104F0CEFFCDE904014F
:1020D000179805F0A5F900221B4BCDE9000104F08B
:1020E000C3FFCDE90201DDE9042304F089FECDE957
:1020F0000601DDE9082300E02AE004F0F3FBCDE966
:102100000A0104F080FBCDE912010A4B189A03EB97
:10211000C202DDE9140103C2074B189A03EBC202A5
:10212000DDE9120103C24FF07E51179805F024FB40
:102130001790F1E148030020D00500200000404046
:1021400000C04B4000803040006050400000A04084
:1021500018983F287EDAFE481690169805F060F928
:102160000022FC4BCDE9000104F07EFFCDE9040123
:10217000169805F055F90022F64BCDE9000104F060
:1021800073FFCDE9020100E0CAE1DDE9042304F0B8
:1021900037FECDE90801179805F042F90022EE4B11
:1021A000CDE9000104F09EFBCDE90401179805F08C
:1021B00037F90022E84BCDE9000104F093FBCDE9AB
:1021C0000201DDE9042304F01BFECDE90601DDE98F
:1021D000082304F087FBCDE90A0104F014FBCDE9E4
:1021E0001401169805F01CF90022DA4BCDE9000124
:1021F00004F03AFFCDE90401169805F011F9002228
:10220000D44BCDE9000104F02FFFCDE90201DDE957
:10221000042304F0F5FDCDE90801179805F000F955
:102220000022CE4BCDE9000104F01EFFCDE90401F0
:10223000179805F0F5F80022C84BCDE9000104F02D
:1022400013FFCDE90201DDE9042304F0D9FDCDE956
:10225000060100E01EE0DDE9082304F043FBCDE9C0
:102260000A0104F0D0FACDE91201BD4B189A03EB34
:10227000C202DDE9140103C2BA4B189A03EBC20291
:10228000DDE9120103C24FF07E51179805F0F4F812
:10229000179041E1189848287EDAB34816901698AE
:1022A00005F0BEF80022AB4BCDE9000104F0DCFEE6
:1022B000CDE90401169805F0B3F80022A54BCDE94D
:1022C000000104F0D1FECDE90201DDE9042304F0B0
:1022D00097FDCDE90801179805F0A2F800229E4B62
:1022E000CDE9000104F0FEFACDE90401179805F0EC
:1022F00097F80022984BCDE9000104F0F3FACDE9FC
:102300000201DDE9042304F07BFDCDE90601DDE9EE
:10231000082304F0E7FACDE90A0104F074FACDE9E4
:102320001401169805F07CF800228A4BCDE90001D3
:1023300004F09AFECDE90401169805F071F8002228
:10234000844BCDE9000104F08FFECDE90201DDE907
:10235000042304F055FDCDE90801179805F060F855
:1023600000227E4BCDE9000104F07EFECDE90401A0
:10237000179805F055F80022784BCDE9000104F0DC
:1023800073FECDE90201DDE9042304F039FDCDE956
:102390000601DDE9082300E01CE004F0A3FACDE922
:1023A0000A0104F030FACDE912016D4B189A03EBE3
:1023B000C202DDE9140103C26A4B189A03EBC202A0
:1023C000DDE9120103C24FF07E51179805F0D4F9F0
:1023D0001790A1E0189851287DDA4FF082401690AE
:1023E000169805F01DF800225A4BCDE9000104F0C3
:1023F0003BFECDE90401169805F012F80022554B7A
:10240000CDE9000104F030FECDE90201DDE904234D
:1024100004F0F6FCCDE90801179805F001F8002258
:102420004D4BCDE9000104F05DFACDE904011798A8
:1024300004F0F6FF0022484BCDE9000104F052FA07
:10244000CDE90201DDE9042304F0DAFCCDE906015F
:10245000DDE9082304F046FACDE90A0104F0D3F9D6
:10246000CDE91401169804F0DBFF0022394BCDE9C9
:10247000000104F0F9FDCDE90401169804F0D0FF45
:102480000022344BCDE9000104F0EEFDCDE902015C
:10249000DDE9042304F0B4FCCDE90801179804F049
:1024A000BFFF00222D4BCDE9000104F0DDFDCDE999
:1024B0000401179804F0B4FF0022284BCDE9000175
:1024C00004F0D2FDCDE90201DDE9042304F098FC1B
:1024D000CDE9060100E01EE0DDE9082304F002FA80
:1024E000CDE90A0104F08FF9CDE912011C4B189ACD
:1024F00003EBC202DDE9140103C21A4B189A03EB85
:10250000C202DDE9120103C24FF07E51179804F0B8
:10251000B3FF179000E000BF1898401C81B21891DB
:1025200018985128FFF631AA002018903BE10C4979
:10253000189801EBC00103C9CDE90A0108491898B0
:10254000401C01EBC00003C8CDE908010EE000000B
:102550000000C04000C04B40008030400060504050
:1025600048030020D00500200000E040DDE90A23F8
:1025700004F06CFECDE91001EF49189801EBC001A1
:1025800003C9CDE90A01EC491898401C01EBC000D1
:1025900003C8CDE90801DDE90A2304F057FECDE9BF
:1025A0000E0100221346DDE9100104F027FD03D2DD
:1025B0000120E249087009E000221346DDE910011C
:1025C00004F0E2FB02D20020DC490870002213462E
:1025D000DDE90E0104F012FD03D20020D849087095
:1025E00009E000221346DDE90E0104F0CDFB02D222
:1025F0000120D3490870DDE9100121F00041CDE947
:102600001001DDE90E0121F00041CDE90E01DDE907
:102610000E01CDE90001CBA0DDE9102303F076F82F
:102620000022D04BDDE9100104F0EAFB0022CE4B82
:10263000CDE9080104F00AFACDE90A0104F05EFBD5
:10264000CA4908600022C74BDDE90E0104F0D8FB3F
:102650000022C54BCDE9080104F0F8F9CDE90A01E3
:1026600004F04CFBC249086008460268BF48016894
:10267000C0A003F04BF8BD480068BD490968884216
:102680002ADDC4480D90BA48006804F066FB0022B9
:10269000C14BCDE9040104F0B3FBCDE90801B34817
:1026A000006804F05AFB0022BC4BCDE9000104F0A5
:1026B000A7FBCDE9020104F021FB059004F04DFBDE
:1026C000CDE90601DDE9082304F0C0F9CDE90A01EE
:1026D00004F0D6F80C9029E0AE480C90A3480068AE
:1026E00004F03BFB0022AC4BCDE9040104F088FB75
:1026F000CDE908019E48006804F02FFB0022A74B9B
:10270000CDE9000104F07CFBCDE9020104F0F6FA0A
:10271000059004F022FBCDE90601DDE9082304F071
:1027200095F9CDE90A0104F0ABF80D900D9804F08D
:1027300005FF9B4908600C9804F000FF9949086068
:10274000084602689648016897A002F0DFFF002063
:102750009D4908700121880702F0D2FA01219B48A7
:1027600002F0CEFA07E098480078022803D1002052
:102770009549087000E0F6E700BF0921189890FB22
:10278000F1F10B91092190FBF1F201FB12010A9189
:102790000B9AFFF797F84FF4FA7000F04CFF189877
:1027A000401C81B2189118985028FFF6C0AE19B09D
:1027B00000BDF0B50023002400214BE000230022DF
:1027C0000BE001EBC1051544814E56F835506D1CE8
:1027D0000DB15D1CEBB2551CAAB2092AF1DB022B2C
:1027E00036DD651CECB2002012E000EBC00515449C
:1027F000774E56F835506D1C45B100EBC0051544B9
:10280000744E754F3F7826F8175003E0451CA8B268
:102810000928EADB00BF082012E000EBC0051544E0
:102820006B4E56F835506D1C45B100EBC005154494
:10283000684E694F3F7826F8175003E0451EA8B24E
:102840000028EADA00BF644D2D786D1C624E3570A9
:102850004D1CA9B20929B1DB00214BE00023002265
:102860000BE002EBC2050D44594E56F835506D1C75
:102870000DB15D1CEBB2551CAAB2092AF1DB022B8B
:1028800036DD651CECB2002012E000EBC0050D4403
:102890004F4E56F835506D1C45B100EBC0050D4448
:1028A0004C4E4D4F3F7826F8175003E0451CA8B218
:1028B0000928EADB00BF082012E000EBC0050D4448
:1028C000434E56F835506D1C45B100EBC0050D4424
:1028D000404E414F3F7826F8175003E0451EA8B2FE
:1028E0000028EADA00BF3C4D2D786D1C3A4E357059
:1028F0004D1CA9B20929B1DB02E0032C00D100E094
:10290000FBE700BFF0BD10B50146002010E0314AE2
:1029100032F81020092392FBF3F403FB14220A601F
:102920002C4A32F8102092FBF3F24A60421CD0B2DB
:102930000428ECDB10BD7047D005002055000020B6
:10294000540000206C6566742063686120256C6605
:10295000202072696768742063686120256C662096
:102960002020000000005940000010404C000020D2
:10297000500000206C6566745F7374657020256478
:10298000202072696768745F737465702025642005
:1029900020200000000020410000F03F0000244003
:1029A0005C000020580000206C6566745F74696DDF
:1029B00065202564202072696768745F74696D659D
:1029C00020256420200A00007C0000200004004034
:1029D000C0000020700000207800002008B5012110
:1029E000142001F087FA10208DF8030003208DF8E1
:1029F0000200F020ADF800006946954800F0BEFFE7
:102A00004FF47070ADF800006946924800F0B6FFD0
:102A100008BD0020904908609049C1F89C018E498A
:102A2000083108608D49C1F8A401704700208C4925
:102A300008608C49C1F894018949083108608949C6
:102A4000C1F89C01704708287DD2DFE800F004132C
:102A50002131404F5E6E01217F4A116000217F4A83
:102A6000C2F89C117C4A0832116001217B4AC2F8ED
:102A7000A41168E00021784A1160784AC2F89C11DC
:102A8000754A083211600121744AC2F8A4115AE053
:102A90000021714A11600121704AC2F89C11002185
:102AA0006D4A0832116001216C4AC2F8A4114AE053
:102AB0000021694A11600121684AC2F89C11002175
:102AC000654A08321160654AC2F8A4113BE0002152
:102AD000614A11600121614AC2F89C115E4A0832C4
:102AE000116000215D4AC2F8A4112CE000215A4A6D
:102AF00011605A4AC2F89C110121574A08321160EC
:102B00000021564AC2F8A4111DE00121524A116069
:102B10000021524AC2F89C1101214F4A083211602B
:102B200000214E4AC2F8A4110DE001214A4A116069
:102B300000214A4AC2F89C11474A08321160474AAC
:102B4000C2F8A41100BF00BF704708287DD2DFE89B
:102B500000F004132131404F5E6E0121404A1160A4
:102B60000021404AC2F894113D4A08321160012107
:102B70003C4AC2F89C1168E00021394A1160394A88
:102B8000C2F89411364A083211600121354AC2F860
:102B90009C115AE00021324A11600121314AC2F8E9
:102BA000941100212E4A0832116001212D4AC2F8E9
:102BB0009C114AE000212A4A11600121294AC2F8E9
:102BC00094110021264A08321160264AC2F89C114D
:102BD0003BE00021224A11600121224AC2F89411EF
:102BE0001F4A0832116000211E4AC2F89C112CE0D5
:102BF00000211B4A11601B4AC2F894110121184A96
:102C0000083211600021174AC2F89C111DE0012111
:102C1000134A11600021134AC2F894110121104A8D
:102C20000832116000210F4AC2F89C110DE0012109
:102C30000B4A116000210B4AC2F89411084A08326D
:102C40001160084AC2F89C1100BF00BF7047000025
:102C50000008014000100140980122420000224279
:102C600090012142000021427FB505460C4601211A
:102C7000022001F04CF9ADF80850ADF804400020F6
:102C8000ADF80A00ADF8060001A9794801F0DCFCB6
:102C900001221146764802F04EF81D208DF8000002
:102CA00000208DF8010003208DF8020001208DF82E
:102CB0000300684601F08BFB0121084601F027F96B
:102CC000ADF80850ADF804400020ADF80A00ADF8AA
:102CD000060001A94FF0804001F0B6FC0122114628
:102CE000900702F028F81C208DF8000001208DF8D4
:102CF000010003208DF8020001208DF803006846D2
:102D000001F065FB7FBD10B50121594802F0C1FA01
:102D1000002851D00121564802F0CCFA55480068ED
:102D2000401C5449086008460068534909688842B5
:102D300042D100204F4908605048007890B950486F
:102D40000068401C4E4908600868C11700EB5171CB
:102D5000C910A0EBC1014A4A116011460878FFF77B
:102D600072FE12E04548007801280ED14448006800
:102D7000401E4349086008460068401C08B9072007
:102D800008603F490878FFF75EFE3E480068401C37
:102D90003C490860084600683B49096888420BD1F5
:102DA00000203849086039480078401C37490870CD
:102DB00000212F4801F0A4FF10BD10B501218807A4
:102DC00002F067FA002852D00121880702F072FA57
:102DD0002F480068401C2E490860084600682D49AD
:102DE0000968884243D10020294908602A480078B0
:102DF00090B92A480068401C284908600868C11733
:102E000000EB5171C910A0EBC101244A11601146B9
:102E10000878FFF79AFE12E01F48007801280ED1CB
:102E20001E480068401E1D49086008460068401C96
:102E300008B90720086019490878FFF786FE184886
:102E40000068401C16490860084600681549096872
:102E500088420CD10020124908600C480078401CC0
:102E60000A49087000214FF0804001F049FF10BD71
:102E700000040040800000205C000020550000207D
:102E800084000020900000204C0000207C000020E6
:102E90008800002058000020540000208C000020F2
:102EA000940000205000002008B50121142001F0FA
:102EB00021F80121194800F032FE2020ADF8000071
:102EC00048208DF803006946154800F057FD08BDFD
:102ED00010B5044614B10120124908701148007859
:102EE00088B120210E4800F0DCFD60B90A2000F016
:102EF000A2FB00200B4908702021094800F0D1FDF9
:102F000048B9012010BD2021054800F0CAFD012864
:102F100001D1044908700020F4E7000000023000ED
:102F2000001001409800002000BF2449098801F0EA
:102F300040010029F9D02149091D0880704770B56A
:102F400004460D46FE20FFF7EFFF05EB84118031AC
:102F5000C8B2FFF7E9FF0A2000F06DFB70BD10B5A5
:102F6000FE20FFF7E1FF0120FFF7DEFF0A2000F05F
:102F700062FB10BD10B57C20FFF7D6FF9D20FFF748
:102F8000D3FF0A2000F057FB10BD10B54FF41650C8
:102F900000F01FFCFFF7EEFFFFF7E1FF00210846FE
:102FA000FFF7CDFF10BD10B57C20FFF7BDFF8020DF
:102FB000FFF7BAFF0A2000F03EFB10BD00480040BA
:102FC00000B587B001214FF4017000F093FF4FF47A
:102FD000004000F0F3FE0220ADF8040000208DF860
:102FE000070001A9FE4800F0C9FCFE4802F066F99E
:102FF000002002908DF80C008DF80D004FF4602039
:1030000004900020059001208DF8180002A9F548D1
:1030100002F07BF90121F34802F0A3F9F14802F034
:10302000C2F900BFEF4802F0C3F90028FAD1ED4819
:1030300002F0C8F900BFEB4802F0C9F90028FAD144
:1030400001214FF4017000F055FF4FF4004000F0F3
:10305000B5FE0220ADF8040000208DF8070001A99C
:10306000DF4800F08BFCDF4802F028F900200290D6
:103070008DF80C008DF80D004FF4602004900020B6
:10308000059001208DF8180002A9D64802F03DF9FC
:103090000121D44802F065F9D24802F084F900BF5A
:1030A000D04802F085F90028FAD1CE4802F08AF91A
:1030B00000BFCC4802F08BF90028FAD1012140F280
:1030C000044000F017FF4FF4004000F077FE0420AA
:1030D000ADF8040000208DF8070001A9C04800F0F9
:1030E0004DFCC14802F0EAF8002002908DF80C0077
:1030F0008DF80D004FF46020049000200590012011
:103100008DF8180002A9B84802F0FFF80121B6486E
:1031100002F027F9B44802F046F900BFB24802F0C5
:1031200047F90028FAD1B04802F04CF900BFAE4888
:1031300002F04DF90028FAD1012148F2040000F014
:10314000D9FE4FF4004000F039FE0820ADF804002D
:1031500000208DF8070001A9A14800F00FFCA3484A
:1031600002F0ACF8002002908DF80C008DF80D00F4
:103170004FF4602004900020059001208DF8180085
:1031800002A99A4802F0C1F80121984802F0E9F832
:10319000964802F008F900BF944802F009F90028A7
:1031A000FAD1924802F00EF900BF904802F00FF9F0
:1031B0000028FAD107B000BD10B50446072301224C
:1031C0002146884802F039F90121864802F009F9C0
:1031D00000BF0221834802F075FA0028F9D0814827
:1031E00002F092F910BD2DE9F04107460C4600258A
:1031F000002608E03846FFF7DFFF0544042000F012
:103200001AFA701CC6B2A642F4DBB5FBF4F0BDE8B6
:10321000F0812DE9F05F4FF0000900240521012025
:10322000FFF7E1FF8146484604F0BCF9834604F00D
:10323000F7F807464FF066326D4B03F0E1FD0546A7
:1032400003F01EFB8246504604F0EAF80546694A40
:10325000694B03F0D3FE0AD2504604F0E1F805466C
:10326000644A664B03F090FD01D201243CE05046D5
:1032700004F0D6F80546624A624B03F0BFFE0BD25B
:10328000504604F0CDF805464FF033325E4B03F064
:103290007BFD01D2042427E0504604F0C1F8054626
:1032A0005A4A5B4B03F0AAFE0AD2504604F0B8F823
:1032B0000546584A584B03F067FD01D2072413E036
:1032C000504604F0ADF805464FF06632534B03F01C
:1032D00095FE09D2504604F0A3F805464B4A504BE0
:1032E00003F052FD00D20A244FF0000AD146052116
:1032F0000220FFF778FF8146484604F053F98346E1
:1033000004F08EF807464FF06632394B03F078FD33
:10331000054603F0B5FA8246504604F081F80546AA
:10332000344A354B03F06AFE0AD2504604F078F86E
:103330000546304A314B03F027FD01D202243CE020
:10334000504604F06DF805462D4A2E4B03F056FE0C
:103350000BD2504604F064F805464FF033322A4B46
:1033600003F012FD01D2052427E0504604F058F87E
:103370000546264A264B03F041FE0AD2504604F089
:103380004FF80546234A244B03F0FEFC01D20824E3
:1033900013E0504604F044F805464FF066321F4BE8
:1033A00003F02CFE09D2504604F03AF80546174ABD
:1033B0001B4B03F0E9FC00D20B244FF0000AD1466E
:1033C00005210320FFF70FFF8146484604F0EAF885
:1033D000834604F025F807464FF06632044B21E09F
:1033E000000801400024014000280140003C014049
:1033F00066664A3FFCA9F1D24D6250BF4D62503F14
:103400009A9999999999F93F3333FB3FCDCCCCCC1C
:10341000CCCCFC3F3D0AD7A3703D0240666602401B
:10342000CCCC044003F0ECFC054603F029FA8246BC
:10343000504603F0F5FF0546414A424B03F0DEFDDE
:103440000AD2504603F0ECFF05463D4A3E4B03F0DE
:103450009BFC01D203243CE0504603F0E1FF05460B
:103460003A4A3B4B03F0CAFD0BD2504603F0D8FF5B
:1034700005464FF03332374B03F086FC01D2062469
:1034800027E0504603F0CCFF0546334A334B03F0A8
:10349000B5FD0AD2504603F0C3FF0546304A314B12
:1034A00003F072FC01D2092413E0504603F0B8FF88
:1034B00005464FF066322C4B03F0A0FD09D2504672
:1034C00003F0AEFF0546244A284B03F05DFC00D212
:1034D0000C242CB90120264908700020BDE8F09F7B
:1034E0000A2000F0A8F82248007838B300202049CC
:1034F00008700D2C20D2DFE804F01F07090B0D0F18
:1035000011131517191B1D000120E7E70220E5E73D
:103510000320E3E70420E1E70520DFE70620DDE7FD
:103520000720DBE70820D9E70920D7E70A20D5E7FD
:103530000B20D3E70C20D1E700BF00BF0020CDE770
:10354000FCA9F1D24D6250BF4D62503F9A999999B2
:103550009999F93F3333FB3FCDCCCCCCCCCCFC3F5D
:103560003D0AD7A3703D024066660240CCCC0440C1
:103570009900002008B50121082000F0BBFC40F2B2
:10358000FF10ADF8000028208DF8030069460A48B6
:1035900000F0F4F940F2FF11074800F09EFA08BD70
:1035A00010B500240121044800F07BFA012800D165
:1035B0000124204610BD0000000C014010B56FF042
:1035C000040000F04EFF2E4800682E49B0FBF1F0D9
:1035D0002D4908700846007800EB4001C1EBC0108F
:1035E0004FF6FF7101EAC0002849088010BD01466E
:1035F000254A12784A434FF0E0235A6100229A612B
:103600001A46126942F001021A6100BF4FF0E0222F
:10361000106900F001021AB100F48032002AF5D0DE
:103620004FF0E022126922F001024FF0E0231A610C
:1036300000229A6170470146144A12884A434FF0AB
:10364000E0235A6100229A611A46126942F001028F
:103650001A6100BF4FF0E022106900F001021AB1B8
:1036600000F48032002AF5D04FF0E022126922F0F7
:1036700001024FF0E0231A6100229A6170470000B6
:103680001C00002000127A009A0000209C000020FC
:1036900010B54FF4A06000F095FE10BD014600BFCC
:1036A000704700BF6F4A128802F04002002AF9D02A
:1036B000C2B26C4B1B1D1A80704710B586B0044611
:1036C000012144F2040000F015FC664800F076FC8D
:1036D0004FF40070ADF8140003208DF81600182088
:1036E0008DF8170005A9604800F048F94FF4806094
:1036F000ADF8140004208DF8170005A95A4800F011
:103700003DF925208DF8000003208DF801008DF88B
:10371000020001208DF80300684600F058FE019475
:103720000020ADF80800ADF80A00ADF80C00ADF8C7
:1037300010000C20ADF80E0001A94A4800F081FCF1
:10374000012240F22551474800F013FD0121454870
:1037500000F003FD06B010BD10B540F22551414800
:1037600000F0ECFD10B33F4800F068FDC4B23F48E4
:10377000008800F40040C8B93C48008800F480404C
:1037800060B10A2C03D000203849088020E0374877
:10379000008840F400403549088019E00D2C06D11E
:1037A0003248008840F480403049088010E02F48BB
:1037B0000088C0F30D002E490C542C480088401C92
:1037C0002A49088008460088C72801DD00200880B3
:1037D00010BD10B586B004460121880400F097FBA7
:1037E0000121092000F086FB224800F0E7FB4FF49E
:1037F0008060ADF8140003208DF8160018208DF8B5
:10380000170005A91C4800F0B9F84FF40060ADF8A6
:10381000140004208DF8170005A9174800F0AEF831
:1038200001940020ADF80800ADF80A00ADF80C00D6
:10383000ADF810000C20ADF80E0001A90D4800F005
:1038400000FC012240F225510A4800F092FC0121BF
:10385000084800F082FC4021064800F066FD06B0F2
:1038600010BD00000038014000080140A400002005
:103870007808002000480040000C014009488047BB
:1038800009480047FEE7FEE7FEE7FEE7FEE7FEE742
:10389000FEE7FEE7FEE7FEE704480549054A064B5A
:1038A000704700007703000831010008A0090020DC
:1038B000A00F0020A00B0020A00B002010B5044694
:1038C000CC48844208D10121042000F02DFB0021C6
:1038D000042000F029FB46E0C748844208D10121BA
:1038E000082000F021FB0021082000F01DFB3AE039
:1038F000C248844208D10121102000F015FB0021AC
:10390000102000F011FB2EE0BD48844208D10121B7
:10391000202000F009FB0021202000F005FB22E020
:10392000B848844208D10121402000F0FDFA00216E
:10393000402000F0F9FA16E0B348844208D1012192
:10394000802000F0F1FA0021802000F0EDFA0AE07A
:10395000AE48844207D10121801500F0E5FA00212C
:10396000A01500F0E1FA10BD10B50121084600F0E5
:10397000DBFA0021012000F0D7FA10BD2DE9F0415B
:10398000024600250026002000230024002791F88D
:1039900003C00CF00F0591F803C00CF0100CBCF143
:1039A000000F03D091F802C04CEA050591F800C061
:1039B000BCF1000F31D0146800202BE04FF0010C57
:1039C0000CFA00F3B1F800C00CEA03069E4220D1C5
:1039D00083004FF00F0C0CFA03F7BC4305FA03FC0D
:1039E0004CEA040491F803C0BCF1280F06D14FF053
:1039F000010C0CFA00FCC2F814C00AE091F803C0F4
:103A0000BCF1480F05D14FF0010C0CFA00FCC2F8D4
:103A100010C0401C0828D1D31460B1F800C0BCF11C
:103A2000FF0F34DD546800202EE000F1080C4FF049
:103A3000010808FA0CF3B1F800C00CEA03069E4234
:103A400021D183004FF00F0C0CFA03F7BC4305FAA9
:103A500003FC4CEA040491F803C0BCF1280F05D123
:103A600000F1080C08FA0CF8C2F8148091F803C0B1
:103A7000BCF1480F07D100F1080C4FF0010808FA1B
:103A80000CF8C2F81080401C0828CED35460BDE862
:103A9000F0814FF6FF710180022181700421C17015
:103AA00070470246002093680B400BB1012000E0F4
:103AB000002070470146886880B2704702460020A7
:103AC000D3680B400BB1012000E000207047014695
:103AD000C86880B2704701617047416170470AB1A0
:103AE000016100E041617047C16070474FF480326E
:103AF0000A438261816182618269826970470246FC
:103B00000020434B18684FF68073184040EA0210BB
:103B100008433F4B186070473E49C8617047F0B595
:103B20000A46002300240021002500F00046B6F1DB
:103B3000004F02D1364EF16901E0354E7168C0F395
:103B4000034583B200F44016B6F5401F08D121F0BA
:103B500070612F4E766826F070662D4F7E6012E001
:103B600000F48016B6F5801F06D1032606FA05F488
:103B7000A14341F0706106E0460D360103FA06F6F6
:103B8000B14341F0706122B1460D360103FA06F6E9
:103B9000314300F00046B6F1004F02D11C4EF161F6
:103BA00001E01B4E7160F0BD30B500228B071C0F89
:103BB0000F2303FA04F2164B08338C1053F8243009
:103BC0009343134C08348D1044F8253023468C1051
:103BD00053F824308C07240F00FA04F423430C4CD0
:103BE00008348D1044F8253030BD0A49DC310860B6
:103BF0007047000000080140000C01400010014027
:103C00000014014000180140001C01400020014048
:103C10000000014000002042DF48006840F0010041
:103C2000DD49086008464068DC490840DA494860D8
:103C300008460068DA490840D74908600846006825
:103C400020F4802008600846406820F4FE004860A8
:103C50004FF41F0088607047CF49096821F4803114
:103C6000CD4A11601146096821F480211160B0F538
:103C7000803F03D0B0F5802F0ED106E0C649096819
:103C800041F48031C44A116007E0C349096841F436
:103C9000A021C14A116000E000BF00BF704710B50D
:103CA00001460022002300204A11012A02D1BA4C09
:103CB000236806E0022A02D1B74C236A01E0B64C21
:103CC000636A01F01F02012494401C400CB10120E2
:103CD00000E0002010BD38B5002000900024002531
:103CE00000BF3120FFF7DBFF05460098401C009025
:103CF0000098B0F5A06F01D0002DF2D03120FFF771
:103D0000CEFF08B1012400E00024204638BD014662
:103D10000020A14A106820F0F80040EAC1001060BD
:103D20007047A04908607047024600209A4B5868C7
:103D300020F47C1042EA01031843974B5860704707
:103D400098490866704701460020934A506820F061
:103D500003000843506070478F48406800F00C0033
:103D60007047014600208C4A506820F0F00008435C
:103D70005060704701460020874A506820F4E06098
:103D800008435060704701460020834A506820F481
:103D9000605040EAC1005060704729B17E4A527AB3
:103DA00002437D4B5A7204E07B4A527A82437A4B3B
:103DB0005A7270477B49D83108607047014600202D
:103DC000754A506820F44040084350607047002115
:103DD000714A20321170704A82F82010012802D0F6
:103DE00004280AD104E001216B4A2032117005E059
:103DF0000521694A2032117000E000BF00BF704702
:103E00006949086070476449096A0143624A11625E
:103E10007047654944390860704730B50021002279
:103E2000002400235C4D6D6805F00C0121B10429CC
:103E300005D0082923D105E05C4D056022E05B4DEB
:103E400005601FE0544D6D6805F47012524D6D68A9
:103E500005F48034022505EB92421CB9544D5543BC
:103E600005600BE04C4D6D6805F400351DB1504DFB
:103E70005543056002E04D4D5543056002E04B4D52
:103E8000056000BF00BF444D6D6805F0F0010909F1
:103E9000484D6B5C0568DD4045603F4D6D6805F43D
:103EA000E061090A434D6B5C4568DD4085603A4D31
:103EB0006D6805F46051C90A3E4D6B5C4568DD4094
:103EC000C560354D6D6805F44041890B3A4D6B5C1A
:103ED000C568B5FBF3F5056130BD29B12E4A5269BD
:103EE00002432D4B5A6104E02B4A526982432A4B0C
:103EF0005A61704729B1284A92690243264B9A6158
:103F000004E0254A92698243234B9A61704729B1A4
:103F1000214AD2690243204BDA6104E01E4AD26989
:103F200082431D4BDA61704729B11B4AD2680243B4
:103F3000194BDA6004E0184AD2688243164BDA6003
:103F4000704729B1144A12690243134B1A6104E005
:103F5000114A12698243104B1A6170471249403965
:103F6000086070470F49C86470470B49C8717047B3
:103F70000948406A40F0807007494862704701462E
:103F80000020054A92680A400AB1012000E00020A2
:103F90007047014988727047001002400000FFF826
:103FA000FFFFF6FE000042428004424200127A0007
:103FB00000093D00A6000020B600002010B5044610
:103FC000FB48844209D101218803FFF7ADFF00219E
:103FD0004FF48040FFF7A8FF32E0F648844209D151
:103FE00001214804FFF7ADFF00214FF40030FFF737
:103FF000A8FF25E0F048844209D101218804FFF799
:10400000A0FF00214FF48020FFF79BFF18E0EB4852
:10401000844209D10121C804FFF793FF00214FF426
:104020000020FFF78EFF0BE0E548844208D1012114
:104030000805FFF786FF00214FF48010FFF781FF8E
:1040400010BD2DE9F04786B005460E460024A24675
:1040500000BFA1460027B08900B100BF2F462C8ABF
:104060004CF6FF700440F08804432C82AC894EF675
:10407000F3100440B0883189084371890843044330
:10408000AC81AC8A4FF6FF400440B0890443AC8257
:1040900001A8FFF7C2FEC648874202D1DDF810A092
:1040A00001E0DDF80CA0A88900F4004040B10AEB63
:1040B000CA0000EB0A1031684900B0FBF1F807E0D4
:1040C0000AEBCA0000EB0A1031688900B0FBF1F876
:1040D0006420B8FBF0F004012009642101FB108981
:1040E000A88900F4004040B1322000EBC900B0FBC9
:1040F000F1F000F00700044308E0322000EB091063
:104100006421B0FBF1F000F00F0004432C8106B0F5
:10411000BDE8F0874FF41651016000218180C18015
:1041200001810C21418100218181704710B5024637
:104130000020108A4FF2FF0318400B884C8823435D
:104140008C882343CC8823431843108210BD002160
:10415000018041808180C180704721B1828942F411
:104160000052828104E082894DF6FF731A408281F9
:104170007047F0B50346002400260025002040F6D5
:104180006A17B94200D100BF1846C1F3421401F0CA
:104190001F06012707FA06F5012C01D10C3004E0B7
:1041A000022C01D1103000E014301AB107682F43FF
:1041B000076002E00768AF430760F0BD1AB1838A69
:1041C0000B43838202E0838A8B4383827047028A97
:1041D0004FF6F0731A400282028A0A430282704745
:1041E00082894FF2FF731A40828182890A43828159
:1041F000704721B1828942F00202828104E0828903
:104200004FF6FD731A4082817047028A4FF6DF73C2
:104210001A400282028A0A430282704721B1028A4E
:1042200042F48042028204E0028A4BF6FF731A4095
:1042300002827047C1F30802828070470146888875
:10424000C0F308007047818941F001018181704706
:10425000028BD2B20283028B42EA012202837047B0
:10426000028B02F47F420283028B0A43028370476F
:1042700021B1828A42F02002828204E0828A4FF6D3
:10428000DF731A408282704721B1828A42F01002A5
:10429000828204E0828A4FF6EF731A40828270476E
:1042A00021B1828A42F00802828204E0828A4FF6BB
:1042B000F7731A408282704721B1828942F400422A
:1042C000828103E08289C2F30E028281704721B1AC
:1042D000828A42F40062828204E0828A4FF2FF7393
:1042E0001A4082827047828A4FF6FB731A4082829C
:1042F000828A0A438282704721B1828A42F0020296
:10430000828204E0828A4FF6FD731A4082827047EF
:1043100002460020B1F5007F00D100BF13880B409A
:104320000BB1012000E00020704701F40072B2F5EB
:10433000007F00D100BFCA430280704770B50246BB
:10434000002400230025002040F66A16B14200D167
:1043500000BFC1F3421501F01F03012606FA03F363
:10436000012D02D19689334006E0022D02D1168A32
:10437000334001E0968A33400C12012606FA04F419
:104380001688344013B10CB1012000E0002070BD4C
:1043900010B50022002340F66A14A14200D100BFEC
:1043A0000A1201249440A3B2DC43048010BD000033
:1043B000003801400044004000480040004C0040EC
:1043C0000050004031490143314A1160704770B5D7
:1043D000002100230F22C47804B32D4C246804F478
:1043E000E064C4F5E064210AC1F10403CA404478E2
:1043F00004FA03F18478144021430901254C06781E
:10440000A155047804F01F050124AC4005786D1116
:10441000AD0005F1E025C5F8004109E0047804F09D
:104420001F050124AC401C4D0678761145F8264046
:1044300070BD1A4A0A400243154B1B1F1A60704791
:1044400039B1134A121D12680243114B1B1D1A6029
:1044500006E00F4A121D126882430D4B1B1D1A60A5
:104460007047042808D14FF0E021096941F00401A8
:104470004FF0E022116107E04FF0E021096921F0DF
:1044800004014FF0E0221161704700000000FA05BE
:104490000CED00E000E400E080E100E080FFFF1FA1
:1044A00010B50446FE48844208D10121C014FFF72C
:1044B0003BFD0021E014FFF737FDC4E0B4F1804F6D
:1044C00008D101210846FFF73CFD00210120FFF73C
:1044D00038FDB8E0F348844208D101210220FFF7FB
:1044E00030FD00210220FFF72CFDACE0EE488442B5
:1044F00008D101210420FFF724FD00210420FFF74B
:1045000020FDA0E0E948844208D101210820FFF7FE
:1045100018FD00210820FFF714FD94E0E4488442D0
:1045200008D101211020FFF70CFD00211020FFF71A
:1045300008FD88E0DF48844208D101212020FFF7F0
:1045400000FD00212020FFF7FCFC7CE0DA488442DB
:1045500008D101214014FFF7E7FC00216014FFF7A8
:10456000E3FC70E0D548844209D10121C804FFF77B
:10457000DBFC00214FF40020FFF7D6FC63E0D048BD
:10458000844209D101210805FFF7CEFC00214FF438
:104590008010FFF7C9FC56E0CA48844209D10121C6
:1045A0004805FFF7C1FC00214FF40010FFF7BCFCE9
:1045B00049E0C548844208D101214020FFF7C1FCF1
:1045C00000214020FFF7BDFC3DE0C048844208D1F7
:1045D00001218020FFF7B5FC00218020FFF7B1FC0E
:1045E00031E0BB48844208D101218015FFF7A9FCC6
:1045F0000021A015FFF7A5FC25E0B648844209D1AB
:1046000001210804FFF790FC00214FF48030FFF7F0
:104610008BFC18E0B048844209D101214804FFF71F
:1046200083FC00214FF40030FFF77EFC0BE0AB4829
:10463000844208D101218804FFF776FC00214FF461
:104640008020FFF771FC10BD00220288944B984235
:104650000ED0994B98420BD0B0F1804F08D0914BBF
:10466000984205D0904B984202D0904B984204D18A
:104670004FF68F731A404B881A438D4B984207D0E0
:104680008C4B984204D04FF6FF431A40CB881A4314
:1046900002808B8883850B880385814B98420BD0E1
:1046A000854B984208D08B4B984205D08A4B984254
:1046B00002D08A4B984201D10B7A03860123838270
:1046C000704770B5002400220023058C4FF6FE765B
:1046D00035400584028C8388048B4FF68F752C40FF
:1046E000B51E2C400D882C43751E2A400D892A4387
:1046F0004D882A436A4DA8420BD06F4DA84208D07E
:10470000744DA84205D0744DA84202D0734DA84202
:1047100013D14FF6F7752A404D892A434FF6FB75A2
:104720002A408D882A434FF6FF652B404FF6FF55F0
:104730002B408D892B43CD892B4383800483CD88E7
:104740008586028470BD70B5002400220023058C8C
:104750004FF6EF7635400584028C8388048B48F64B
:10476000FF752C404FF6FF452C400D884FF6FF7625
:1047700006EA05252C434FF6DF752A400D8906EA27
:1047800005152A434D8806EA05152A43444DA842DB
:1047900002D0494DA8421DD14FF67F752A404D8960
:1047A0004FF6FF7606EA05152A434FF6BF752A40F5
:1047B0008D8806EA05152A434FF6FF352B404FF248
:1047C000FF752B408D8906EA85052B43CD8906EAC6
:1047D00085052B4383800483CD880587028470BDC3
:1047E00070B5002400220023058C4FF6FF6635408B
:1047F0000584028C8388848B4FF68F752C404FF68E
:10480000FC752C400D882C434FF6FF552A400D892E
:104810004FF6FF7606EA05252A434D8806EA052568
:104820002A431F4DA84202D0234DA8421DD14FF26A
:10483000FF752A404D894FF6FF7606EA05252A4383
:104840004FF6FF352A408D8806EA05252A434EF6A5
:10485000FF752B404DF6FF752B408D8906EA051537
:104860002B43CD8906EA05152B4383808483CD88AD
:104870008587028470BD70B5002200230024058C5A
:104880004EF6FF7635400584038C8488828B48F68B
:10489000FF752A404FF6FF452A400D8820E00000B2
:1048A000002C01400004004000080040000C0040C3
:1048B000001000400014004000340140004C014052
:1048C000005001400054014000180040001C00400E
:1048D00000200040004001400044014000480140E9
:1048E0004FF6FF7606EA05252A434DF6FF752B4065
:1048F0000D8906EA05352B434D8806EA05352B431D
:10490000FA4DA84202D0FA4DA84208D14BF6FF75E5
:104910002C408D894FF6FF7606EA85152C4384805E
:104920008283CD88A0F84050038470BD828B4FF203
:10493000FF331A408283828B4FF6FF7303EA012311
:104940001A4382837047F0B50C46154600220021B9
:104950000026078C4EF6FF7C07EA0C070784828B43
:10496000018C4FF6FF7707EA043640F6FF473A40DE
:104970004FF6FF7707EA05273A434FF6FF7707EA36
:1049800003373A43D94FB8420ED0D94FB8420BD073
:10499000B0F1804F08D0D74FB84205D0D64FB842BB
:1049A00002D0D64FB84206D14DF6FF77394046F4D3
:1049B0008057394305E047F6FF57394044F48057A4
:1049C000394382830184F0BD828B4FF6F3731A4022
:1049D0008283828B0A4382837047F0B50C4615466A
:1049E000002200210026078C4FF6FF6C07EA0C0717
:1049F0000784828B018C4FF6FF7707EA04264FF677
:104A00000C773A404FF6FF7707EA03172F433A43F4
:104A1000B64FB8420ED0B64FB8420BD0B0F1804F6F
:104A200008D0B44FB84205D0B34FB84202D0B34F0C
:104A3000B84206D14FF6FF57394046F480773943E4
:104A400005E04FF2FF57394044F4807739438283C1
:104A50000184F0BD028B4FF2FF331A400283028BB8
:104A60004FF6FF7303EA01231A4302837047F0B540
:104A70000C461546002200210026078C4FF6EF7CDD
:104A800007EA0C070784028B018C4FF6FF7707EAD1
:104A9000041640F6FF473A404FF6FF7707EA033720
:104AA0003A434FF6FF7707EA05273A438F4FB8425C
:104AB0000ED08F4FB8420BD0B0F1804F08D08D4F41
:104AC000B84205D08C4FB84202D08C4FB84206D1C4
:104AD0004FF6DF77394046F01007394305E04FF6CF
:104AE0005F77394044F01007394302830184F0BDF9
:104AF000028B4FF6F3731A400283028B0A43028340
:104B00007047F0B50C46154600220021068C4FF682
:104B1000FE773E400684028B018C4FF60C763240C5
:104B20007E1C06EA03162E433243704EB0420ED06E
:104B30006F4EB0420BD0B0F1804F08D06D4EB042F6
:104B400005D06D4EB04202D06C4EB04206D14FF649
:104B5000FD76314044F00106314305E04FF6F5762D
:104B6000314044F00106314302830184F0BD70B549
:104B700005460C465D4885420ED05D4885420BD007
:104B8000B5F1804F08D05B48854205D05A48854230
:104B900002D05A48854200D100E000BF208850B9B9
:104BA0002389A28861882846FFF7ABFFE188284661
:104BB000FFF79EFF25E0208804280AD12389A288D8
:104BC00061882846FFF753FFE1882846FFF742FF38
:104BD00017E0208808280AD12389A28861882846FE
:104BE000FFF7FBFEE1882846FFF7EEFE09E0238988
:104BF000A28861882846FFF7A6FEE1882846FFF7CD
:104C000095FE70BD2DE9F04105460C4600260127B2
:104C1000608808B9022600E00026A088012801D19A
:104C2000022700E001272088A0B92389A288618893
:104C30002846FFF766FFE1882846FFF759FF2389DA
:104C40003A4631462846FFF712FFE1882846FFF72B
:104C500001FF13E02389A28861882846FFF707FF38
:104C6000E1882846FFF7F6FE23893A463146284672
:104C7000FFF747FFE1882846FFF73AFFBDE8F081DC
:104C80000A884B881A438B881A43CB881A430B89AE
:104C90001A434B891A438B891A43A0F84420704762
:104CA0004FF6FF71818000210180C1804180017237
:104CB00070470021018041808180C1800181418154
:104CC0008181C18170470021018041800121818063
:104CD0000021C180018170470021018041808180D5
:104CE000C18001814181818170470000002C014019
:104CF000003401400004004000080040000C004067
:104D000021B1028842F00102028004E002884FF6DD
:104D1000FE731A400280704731B1B0F8442042F46B
:104D20000042A0F8442005E0B0F84420C2F30E028F
:104D3000A0F8442070471AB183890B43838102E0B5
:104D400083898B43838170478182704741EA0203E4
:104D5000A0F8483070471AB183890B43838102E081
:104D600083898B438381704701894FF6F872114024
:104D7000018170470A46002101894FF68F7319405F
:104D800011430181704730B504460D46294620463F
:104D9000FFF7F0FF208940F00700208130BD2DE9AA
:104DA000F04104460D4616461F46602D06D13B468F
:104DB000012231462046FFF75AFE05E03B4601221C
:104DC00031462046FFF79DFE29462046FFF7D2FFD9
:104DD000208940F007002081BDE8F08130B50C4605
:104DE00000210189C9B24FF6FF7505EA0325154375
:104DF00025432943018130BD2DE9F04105460E468A
:104E000017469846002443463A4631462846FFF75F
:104E1000E5FF2C894FF6F870044044F007044FF684
:104E20008F70044044F070042C81BDE8F081F0B52F
:104E300004460D4616461F463B4632462946204646
:104E4000FFF7CCFF208940F480402081F0BD018530
:104E5000828270470A46002101884FF68F731940FD
:104E6000114301807047F0B50C4615461E460021DF
:104E7000002200230189028B038C4FF6F87739401A
:104E800021434FF6FC473A4040F201173A434FF6B0
:104E9000DD773B404FF6FF7707EA06172F433B438A
:104EA000018102830384F0BD0A460021018B4FF685
:104EB0008F7319401143018370470A460021018B0B
:104EC00048F6FF7319404FF6FF7303EA02231943B4
:104ED000018370470A460021818B4FF68F7319407A
:104EE0001143818370470A460021818B48F6FF7386
:104EF00019404FF6FF7303EA022319438183704779
:104F000021B1028842F08002028004E002884FF65C
:104F10007F731A400280704721B1828842F00402F8
:104F2000828004E082884FF6FB731A4082807047CB
:104F300021B1828842F00802828004E082884FF624
:104F4000F7731A408280704721B1828842F00102D3
:104F5000828004E082884FF6FE731A408280704798
:104F60000A460021018B4FF6F77319401143018364
:104F700070470A460021018B4FF2FF7319404FF62C
:104F8000FF7303EA02231943018370470A46002195
:104F9000818B4FF6F77319401143818370470A469E
:104FA0000021818B4FF2FF7319404FF6FF7303EA24
:104FB00002231943818370470A460021018B4FF673
:104FC000FB7319401143018370470A460021018B8E
:104FD0004FF6FF3319404FF6FF7303EA02231943DC
:104FE000018370470A460021818B4FF6FB731940FD
:104FF0001143818370470A460021818B4FF6FF33AE
:1050000019404FF6FF7303EA022319438183704767
:105010000A460021018B4FF67F731940114301832B
:1050200070470A460021018BC1F30E014FF6FF7352
:1050300003EA02231943018370470A460021818B4A
:105040004FF67F7319401143818370470A46002150
:10505000818BC1F30E014FF6FF7303EA022319435C
:10506000818370470A460021018C4FF6FD73194079
:105070001143018470470A460021018C4FF6F773F3
:1050800019401143018470470A460021018C4FF6F4
:10509000DF7319404FF6FF7303EA021319430184CB
:1050A00070470A460021018C4FF67F7319404FF676
:1050B000FF7303EA02131943018470470A46002173
:1050C000018C4FF6FF5319404FF6FF7303EA02239A
:1050D0001943018470470A460021018C4FF2FF7387
:1050E00019404FF6FF7303EA022319430184704706
:1050F0000A460021018C4DF6FF7319404FF6FF73ED
:1051000003EA023319430184704730B500230124B8
:105110008C40A3B2048C9C430484048C02FA01F5F5
:10512000ADB22C43048430BD30B5002304248C4040
:10513000A3B2048C9C430484048C02FA01F5ADB242
:105140002C43048430BD70B503460020002418466B
:10515000183001258D40ACB21D8CA5431D8409B1CA
:10516000082909D100EB6100056825F0700505608C
:105170000568154305600EE00D1FC5F34E05284474
:10518000056825F4E045056005684FF6FF7606EAF8
:1051900002263543056070BD21B1028842F002024B
:1051A000028004E002884FF6FD731A4002807047C7
:1051B00021B1028842F00402028004E002884FF626
:1051C000FB731A400280704721B1828842F080024E
:1051D000828004E082884FF67F731A408280704795
:1051E00002884FF6F7731A40028002880A43028051
:1051F000704782884FF68F731A40828082880A43F4
:105200008280704702894FF6F8731A400281028942
:105210000A430281704702894FF67F731A40028168
:1052200002890A43028170478184704781857047F3
:10523000818670470187704781877047A0F84010CA
:10524000704702884FF6FF431A40028002880A43E3
:10525000028070470146888E70470146088F70476C
:105260000146888F70470146B1F8400070470146FB
:10527000888C70470146088D704702460020138ACB
:105280000B400BB1012000E000207047CA430282AE
:10529000704730B50246002000230024158A05EA35
:1052A0000103958905EA010413B10CB1012000E066
:1052B000002030BDCA4302827047000010B504468A
:1052C000FA48844208D101214015FEF72DFE002145
:1052D0006015FEF729FE17E0F548844208D1012148
:1052E0000015FEF721FE00212015FEF71DFE0BE044
:1052F000F048844208D10121C803FEF715FE0021C1
:105300004FF40040FEF710FE10BD30B502460020FD
:1053100000235068E84C20400D790C6844EA0524CD
:10532000204350609068E54C2040D1E902542C4362
:105330004D7944EA450420439060D06A20F470001F
:105340000C7C641EE4B2234340EA0350D06230BDBB
:1053500000210160017141718160C160012101740E
:10536000704721B1826842F00102826003E08268E6
:1053700022F001028260704721B1826842F480729B
:10538000826003E0826822F480728260704710B508
:105390000023CBB21AB144681C43446002E0446865
:1053A0009C43446010BD816841F0080181607047F2
:1053B000014600208A6802F008020AB1012000E0DC
:1053C00000207047816841F0040181607047014608
:1053D00000208A6802F004020AB1012000E00020E7
:1053E000704721B1826842F4A002826003E08268C3
:1053F00022F4A00282607047014600208A6802F40D
:1054000080020AB1012000E00020704710B50A4672
:1054100000210023416821F46041531E41EA4331D9
:10542000416010BD21B1426842F40062426003E075
:10543000426822F4006242607047F0B504460D46AF
:1054400000200021092D11DDE068A5F10A0606EB18
:105450004607072606FA07F18843A5F10A0606EB78
:10546000460603FA06F10843E0600CE0206905EB0C
:105470004507072606FA07F1884305EB450603FAB8
:1054800006F108432061072A0FDA606B561E06EB0F
:1054900086071F2606FA07F18843561E06EB860686
:1054A00005FA06F10843606322E00D2A0FDA206B4B
:1054B000D61F06EB86071F2606FA07F18843D61F7C
:1054C00006EB860605FA06F10843206310E0E06A61
:1054D000A2F10D0606EB86071F2606FA07F18843A0
:1054E000A2F10D0606EB860605FA06F10843E06216
:1054F000F0BD21B1826842F48012826003E08268CC
:1055000022F48012826070470146C86C80B27047F6
:1055100066484C300068704721B1426842F48062AE
:10552000426003E0426822F480624260704721B129
:10553000426842F48052426003E0426822F48052A2
:10554000426070470A460021816821F4E04111431E
:105550008160704721B1826842F40042826003E0BA
:10556000826822F400428260704721B1826842F46E
:105570000212826003E0826822F4021282607047A5
:10558000014600208A6802F400120AB1012000E0FE
:1055900000207047F0B50446154600200022002682
:1055A000092911DDE068A1F10A0707EB470C07277D
:1055B00007FA0CF29043A1F10A0707EB470703FA39
:1055C00007F21043E0600CE0206901EB410C072773
:1055D00007FA0CF2904301EB410703FA07F210437C
:1055E0002061A06BC0F30156EF1C06F1010CA7EB84
:1055F0000C0707EB870C1F2707FA0CF29043EF1CF0
:1056000006F1010CA7EB0C0707EB870701FA07F27D
:105610001043A063F0BD10B50A4600210023816B42
:1056200021F44011531E41EA0351816310BD08B5B6
:10563000002300930090009B0B440093009B1A6092
:1056400008BD08B5024600200090009201F1280034
:10565000009B184400900098006880B208BD0A467C
:1056600000214168164B1940114341607047416267
:10567000826270470A460021416821F01F011143F0
:105680004160704740B109490831096841F400019F
:10569000064A0832116007E004490831096821F41C
:1056A0000001024A083211607047000000240140E6
:1056B00000280140003C0140FFFEF0FFFDF7F1FF34
:1056C000FFFD3FFF0246002013680B400BB1012095
:1056D00000E000207047CA430260704770B5024680
:1056E0000020002300240B125568CEB205EA060400
:1056F00015681D4015B10CB1012000E0002070BDFF
:1057000000220A12D3430360704770470FB4044964
:1057100010B503AA029800F00FFB10BC5DF814FB53
:10572000A00000202DE9F0410646002410687529EC
:10573000314615A510D0AFF30080002802DA4042B0
:1057400012A507E031688A0701D511A502E04907D3
:1057500004D510A5012401E0AFF3008000210A2345
:1057600006F1240707E0B0FBF3F203FB1200303030
:1057700078541046491C0028F5D123462A46304665
:10578000BDE8F04100F073B8000000002D000000FB
:105790002B000000200000002DE9F0410F460546D7
:1057A000002028622846E968884770B3252805D07C
:1057B000D5E901219047286A401CF2E7E9682846AC
:1057C000002688476C2804460AD0682C08D04C2C48
:1057D00035D06A2C31D0742C31D07A2C2FD016E0F1
:1057E000E968064628468847B042044608D16C2E30
:1057F00023D04FF480662846E9688847044606E0CF
:105800006C2E03D04FF4807601E01EE04026E4B118
:10581000A4F14100192802D8203446F400663A4623
:10582000214628462E60FAF7BDFC60B1012808D059
:10583000FF1D27F007070837B4E78026DBE70026BF
:10584000D9E73F1DAEE72046B2E7286ABDE8F08100
:10585000704770477047704710B500F083FA0068D2
:1058600010BD10B5044600F07DFA046010BD2DE9AE
:10587000F0470D4699469246044600F12408016817
:10588000880604D5E06921F01001216000E00120C4
:10589000A84201DD471B00E00027A1697A1902EB4D
:1058A0000900081AA0612078C00602D42046AFF390
:1058B0000080002608E0D4E901211AF8060090478C
:1058C000206A401C761C20624E45F4DB2078C0061E
:1058D0000AD52046AFF3008006E0D4E9012130204C
:1058E0009047206A401C2062381EA7F10107F4DCB3
:1058F00007E0D4E9012118F805009047206A401C10
:105900002062281EA5F10105F3DC2046AFF30080DC
:105910002078000602D50220BDE8F0870120FBE7D1
:1059200070472DE9FF4F0C461E464FF0FF378BB0F6
:10593000D2E90001DDF860800A908A46C1F30A5579
:1059400005B93D46002108464FF00000BAF1000FAE
:1059500000F4400005DA00EB80004FF4400101EA5A
:1059600050004FEA9059B9F1010F00DDB9460A988D
:1059700050EA4A000ED044F61050A5F2FF354543D8
:105980002F14B8F1000F1ED07542291E1EDDC9F17B
:1059900000021CE0B8F1010F4FF0000001D03021EF
:1059A00003E0F24305E02154401CB042FBDB3046EB
:1059B0000022002121540B99C1F80880C1E9002080
:1059C0000FB0BDE8F08FBD1B6D1CDEE74A4600DA64
:1059D000694206A800F068FA06AB93E8070003AB3B
:1059E00083E8070050460A9900F03EFB8DE8070067
:1059F000A0F500501F3800900398002D09DD42F2F9
:105A00001F014A46084403A90390684600F09DFD23
:105A100008E0A0F500504A461F3803A903906846E5
:105A200000F0A7FD8DE807000004000C03D04FF044
:105A3000FF30410800E01046B8F1000F03D000220B
:105A4000009215461EE0751E05D400F08FF9303225
:105A500062556D1EF9D5B3460122084302D00022DB
:105A60007F1C04E02078302801D100227F1E002A0C
:105A7000099786D01DE0112D07DA00F077F9303252
:105A800062556D1C50EA0102F5D1084302D000981E
:105A9000C8B10EE00021681E05E0235C625C63541F
:105AA0002254401E491C8142F7DBAB46A81B401E16
:105AB0000990002004F80B000B98099AC0F80880A0
:105AC000C0E9002B7CE711264FF0000859E72DE9CB
:105AD000F04F88460446D21D22F0070191B0D1E96B
